:100000000C9434000C9446000C9446000C9446006A
:100010000C9446000C9446000C9446000C94460048
:100020000C9446000C9446000C9446000C94460038
:100030000C9446000C9446000C9446000C94460028
:100040000C944F000C9446000C9446000C9446000F
:100050000C9446000C9446000C9446000C94460008
:100060000C9446000C94460011241FBECFEFD8E03C
:10007000DEBFCDBF21E0A0E0B1E001C01D92A930FC
:10008000B207E1F70E9499000C9425010C9400003E
:100090009091C00095FFFCCF8093C60008951F92F9
:1000A0000F920FB60F9211242F933F938F939F932C
:1000B000AF93BF938091050190910601A091070134
:1000C000B09108013091040123E0230F2D3720F473
:1000D0000196A11DB11D05C026E8230F0296A11DA2
:1000E000B11D209304018093050190930601A09314
:1000F0000701B09308018091000190910101A09146
:100100000201B09103010196A11DB11D8093000170
:1001100090930101A0930201B0930301BF91AF91AD
:100120009F918F913F912F910F900FBE0F901F9035
:100130001895789484B5826084BD84B5816084BD4F
:1001400085B5826085BD85B5816085BD80916E0075
:10015000816080936E0010928100809181008260A6
:1001600080938100809181008160809381008091E3
:1001700080008160809380008091B10084608093D2
:10018000B1008091B00081608093B00080917A00CE
:10019000846080937A0080917A00826080937A00F4
:1001A00080917A00816080937A0080917A008068E3
:1001B00080937A001092C1001092C50080E1809374
:1001C000C40088E18093C1008091C1008068809361
:1001D000C1008091C00082608093C0008EE0809357
:1001E000C20088E40E94480085E60E9448008CE630
:1001F0000E9448008CE60E9448008FE60E9448005A
:1002000080E20E94480087E50E9448008FE60E9435
:10021000480082E70E9448008CE60E94480084E67D
:100220000E94480081E20E9448008DE00E94480040
:100230008AE00E9448002FEF89E698E12150804033
:0E0240009040E1F700C00000FFCFF894FFCF20
:00000001FF
